{
    "blockHeight": 100000,
    "blockHash": "6a0f8abab031fec0fa0c97321b054d63640951798253aede93b07e0cc70d50a0",
    "blockTime": 1567134989,
    "blockTxs": [
        "7d2bc02e0e8fc48800bab3483c24fe43965b641e4c78264f8baf259348dbd99b",
        "31d28669c9487f5e97f77a47f4267a4cf00fad5fcd4a6b54a4cf969e7cde51c7"
    ],
    "txDetails": {
        "31d28669c9487f5e97f77a47f4267a4cf00fad5fcd4a6b54a4cf969e7cde51c7": {
            "hex": "0100000001e7cb95ab0439af1016441656de83368802cfbd0742d5f2ead720d1867c4dac6401000000494830450221008f45115149f275604315b5f9961d37fa874c2d4b9704dd34ab52bdff59068ae7022001e0a2f8e583ac5e61ac8a1fbc6ee700a514b4fb700b20066e25726164281cac01ffffffff03000000000000000000a3c746b50d000000232103f99aebc6f58da504f1f2de2a7ecfd4dea2094dfb2babc161af26dc261c4c207dac0008af2f000000001976a9147288ff6f053e583bf0f9ee214bb219f621110bb288ac00000000",
            "txid": "31d28669c9487f5e97f77a47f4267a4cf00fad5fcd4a6b54a4cf969e7cde51c7",
            "blocktime": 1567134989,
            "time": 1567134989,
            "locktime": 0,
            "version": 1,
            "vin": [
                {
                    "txid": "64ac4d7c86d120d7eaf2d54207bdcf02883683de5616441610af3904ab95cbe7",
                    "vout": 1,
                    "scriptSig": {
                        "hex": "4830450221008f45115149f275604315b5f9961d37fa874c2d4b9704dd34ab52bdff59068ae7022001e0a2f8e583ac5e61ac8a1fbc6ee700a514b4fb700b20066e25726164281cac01"
                    },
                    "sequence": 4294967295
                }
            ],
            "vout": [
                {
                    "value": 0.00000000,
                    "n": 0,
                    "scriptPubKey": {
                        "hex": ""
                    }
                },
                {
                    "value": 588.75889571,
                    "n": 1,
                    "scriptPubKey": {
                        "hex": "2103f99aebc6f58da504f1f2de2a7ecfd4dea2094dfb2babc161af26dc261c4c207dac"
                    }
                },
                {
                    "value": 8,
                    "n": 2,
                    "scriptPubKey": {
                        "hex": "76a9147288ff6f053e583bf0f9ee214bb219f621110bb288ac"
                    }
                }
            ]
        }
    }
}
